{
  "contractName": "Auth",
  "abi": [
    {
      "anonymous": false,
      "inputs": [
        {
          "indexed": false,
          "internalType": "uint256",
          "name": "id",
          "type": "uint256"
        },
        {
          "indexed": false,
          "internalType": "address",
          "name": "insuredBy",
          "type": "address"
        },
        {
          "indexed": false,
          "internalType": "address",
          "name": "doctor",
          "type": "address"
        },
        {
          "indexed": false,
          "internalType": "string",
          "name": "reason",
          "type": "string"
        },
        {
          "indexed": false,
          "internalType": "bool",
          "name": "isApproved",
          "type": "bool"
        },
        {
          "indexed": false,
          "internalType": "uint256",
          "name": "amount",
          "type": "uint256"
        }
      ],
      "name": "InsuranceCreated",
      "type": "event"
    },
    {
      "inputs": [
        {
          "internalType": "uint256",
          "name": "",
          "type": "uint256"
        }
      ],
      "name": "doctorAccounts",
      "outputs": [
        {
          "internalType": "address",
          "name": "",
          "type": "address"
        }
      ],
      "stateMutability": "view",
      "type": "function",
      "constant": true
    },
    {
      "inputs": [
        {
          "internalType": "uint256",
          "name": "",
          "type": "uint256"
        }
      ],
      "name": "insurance",
      "outputs": [
        {
          "internalType": "uint256",
          "name": "id",
          "type": "uint256"
        },
        {
          "internalType": "address",
          "name": "insuredBy",
          "type": "address"
        },
        {
          "internalType": "address",
          "name": "doctor",
          "type": "address"
        },
        {
          "internalType": "string",
          "name": "reason",
          "type": "string"
        },
        {
          "internalType": "bool",
          "name": "isApproved",
          "type": "bool"
        },
        {
          "internalType": "uint256",
          "name": "amount",
          "type": "uint256"
        }
      ],
      "stateMutability": "view",
      "type": "function",
      "constant": true
    },
    {
      "inputs": [],
      "name": "insuranceId",
      "outputs": [
        {
          "internalType": "uint256",
          "name": "",
          "type": "uint256"
        }
      ],
      "stateMutability": "view",
      "type": "function",
      "constant": true
    },
    {
      "inputs": [],
      "name": "nextId",
      "outputs": [
        {
          "internalType": "uint256",
          "name": "",
          "type": "uint256"
        }
      ],
      "stateMutability": "view",
      "type": "function",
      "constant": true
    },
    {
      "inputs": [
        {
          "internalType": "uint256",
          "name": "",
          "type": "uint256"
        }
      ],
      "name": "userinsurance",
      "outputs": [
        {
          "internalType": "uint256",
          "name": "id",
          "type": "uint256"
        },
        {
          "internalType": "address",
          "name": "insuredBy",
          "type": "address"
        },
        {
          "internalType": "address",
          "name": "doctor",
          "type": "address"
        },
        {
          "internalType": "string",
          "name": "reason",
          "type": "string"
        },
        {
          "internalType": "bool",
          "name": "isApproved",
          "type": "bool"
        },
        {
          "internalType": "uint256",
          "name": "amount",
          "type": "uint256"
        }
      ],
      "stateMutability": "view",
      "type": "function",
      "constant": true
    },
    {
      "inputs": [
        {
          "internalType": "uint256",
          "name": "",
          "type": "uint256"
        }
      ],
      "name": "userinsurances2",
      "outputs": [
        {
          "internalType": "uint256",
          "name": "",
          "type": "uint256"
        }
      ],
      "stateMutability": "view",
      "type": "function",
      "constant": true
    },
    {
      "inputs": [
        {
          "internalType": "address",
          "name": "_addr",
          "type": "address"
        }
      ],
      "name": "totaldoctorInsurance",
      "outputs": [
        {
          "internalType": "uint256",
          "name": "",
          "type": "uint256"
        }
      ],
      "stateMutability": "view",
      "type": "function",
      "constant": true
    },
    {
      "inputs": [
        {
          "internalType": "address",
          "name": "_addr",
          "type": "address"
        }
      ],
      "name": "totaluserInsurance",
      "outputs": [
        {
          "internalType": "uint256",
          "name": "",
          "type": "uint256"
        }
      ],
      "stateMutability": "view",
      "type": "function",
      "constant": true
    },
    {
      "inputs": [
        {
          "internalType": "address",
          "name": "_addr",
          "type": "address"
        }
      ],
      "name": "getUserInsurance",
      "outputs": [
        {
          "internalType": "uint256",
          "name": "",
          "type": "uint256"
        },
        {
          "internalType": "string",
          "name": "",
          "type": "string"
        },
        {
          "internalType": "string",
          "name": "",
          "type": "string"
        },
        {
          "internalType": "string",
          "name": "",
          "type": "string"
        },
        {
          "internalType": "uint256",
          "name": "",
          "type": "uint256"
        },
        {
          "internalType": "address",
          "name": "",
          "type": "address"
        }
      ],
      "stateMutability": "view",
      "type": "function",
      "constant": true
    },
    {
      "inputs": [
        {
          "internalType": "uint256",
          "name": "id",
          "type": "uint256"
        }
      ],
      "name": "getUserInsuranceById",
      "outputs": [
        {
          "internalType": "uint256",
          "name": "",
          "type": "uint256"
        },
        {
          "internalType": "string",
          "name": "",
          "type": "string"
        },
        {
          "internalType": "string",
          "name": "",
          "type": "string"
        },
        {
          "internalType": "string",
          "name": "",
          "type": "string"
        },
        {
          "internalType": "uint256",
          "name": "",
          "type": "uint256"
        },
        {
          "internalType": "address",
          "name": "",
          "type": "address"
        },
        {
          "internalType": "address",
          "name": "",
          "type": "address"
        }
      ],
      "stateMutability": "view",
      "type": "function",
      "constant": true
    },
    {
      "inputs": [
        {
          "internalType": "address",
          "name": "_addr",
          "type": "address"
        }
      ],
      "name": "getDoctorInsuranceForApproval",
      "outputs": [
        {
          "internalType": "string",
          "name": "",
          "type": "string"
        },
        {
          "internalType": "string",
          "name": "",
          "type": "string"
        },
        {
          "internalType": "string",
          "name": "",
          "type": "string"
        },
        {
          "internalType": "uint256",
          "name": "",
          "type": "uint256"
        },
        {
          "internalType": "address",
          "name": "",
          "type": "address"
        }
      ],
      "stateMutability": "view",
      "type": "function",
      "constant": true
    },
    {
      "inputs": [
        {
          "internalType": "address",
          "name": "_address",
          "type": "address"
        }
      ],
      "name": "isDr",
      "outputs": [
        {
          "internalType": "bool",
          "name": "",
          "type": "bool"
        }
      ],
      "stateMutability": "view",
      "type": "function",
      "constant": true
    },
    {
      "inputs": [],
      "name": "getDoctors",
      "outputs": [
        {
          "internalType": "address[]",
          "name": "",
          "type": "address[]"
        }
      ],
      "stateMutability": "view",
      "type": "function",
      "constant": true
    },
    {
      "inputs": [
        {
          "internalType": "address",
          "name": "_address",
          "type": "address"
        }
      ],
      "name": "getDoctor",
      "outputs": [
        {
          "internalType": "string",
          "name": "",
          "type": "string"
        }
      ],
      "stateMutability": "view",
      "type": "function",
      "constant": true
    },
    {
      "inputs": [],
      "name": "countDoctors",
      "outputs": [
        {
          "internalType": "uint256",
          "name": "",
          "type": "uint256"
        }
      ],
      "stateMutability": "view",
      "type": "function",
      "constant": true
    },
    {
      "inputs": [
        {
          "internalType": "address",
          "name": "_insuredBy",
          "type": "address"
        },
        {
          "internalType": "string",
          "name": "_reason",
          "type": "string"
        },
        {
          "internalType": "uint256",
          "name": "_amount",
          "type": "uint256"
        }
      ],
      "name": "createInsurance",
      "outputs": [],
      "stateMutability": "nonpayable",
      "type": "function"
    },
    {
      "inputs": [
        {
          "internalType": "uint256",
          "name": "id",
          "type": "uint256"
        }
      ],
      "name": "approveInsurance",
      "outputs": [],
      "stateMutability": "nonpayable",
      "type": "function"
    },
    {
      "inputs": [
        {
          "internalType": "uint256",
          "name": "id",
          "type": "uint256"
        }
      ],
      "name": "disapproveInsurance",
      "outputs": [],
      "stateMutability": "nonpayable",
      "type": "function"
    },
    {
      "inputs": [
        {
          "internalType": "address",
          "name": "_address",
          "type": "address"
        },
        {
          "internalType": "address",
          "name": "_draddress",
          "type": "address"
        },
        {
          "internalType": "string",
          "name": "_name",
          "type": "string"
        },
        {
          "internalType": "string",
          "name": "_password",
          "type": "string"
        },
        {
          "internalType": "bool",
          "name": "_isDoctor",
          "type": "bool"
        }
      ],
      "name": "register",
      "outputs": [
        {
          "internalType": "bool",
          "name": "",
          "type": "bool"
        }
      ],
      "stateMutability": "nonpayable",
      "type": "function"
    },
    {
      "inputs": [
        {
          "internalType": "address",
          "name": "_address",
          "type": "address"
        },
        {
          "internalType": "string",
          "name": "_password",
          "type": "string"
        }
      ],
      "name": "login",
      "outputs": [
        {
          "internalType": "uint256",
          "name": "",
          "type": "uint256"
        }
      ],
      "stateMutability": "nonpayable",
      "type": "function"
    },
    {
      "inputs": [
        {
          "internalType": "address",
          "name": "_address",
          "type": "address"
        }
      ],
      "name": "checkIsUserLogged",
      "outputs": [
        {
          "internalType": "bool",
          "name": "",
          "type": "bool"
        }
      ],
      "stateMutability": "view",
      "type": "function",
      "constant": true
    },
    {
      "inputs": [
        {
          "internalType": "address",
          "name": "_address",
          "type": "address"
        }
      ],
      "name": "logout",
      "outputs": [],
      "stateMutability": "nonpayable",
      "type": "function"
    }
  ],
  "bytecode": "0x608060405260008055600060015534801561001957600080fd5b50612b24806100296000396000f3fe608060405234801561001057600080fd5b50600436106101425760003560e01c80639700e19e116100b8578063cff30f8a1161007c578063cff30f8a14610402578063dd6326aa14610432578063ec4551271461044e578063eeab413f1461047e578063f2cc84961461049c578063fe8b2127146104b857610142565b80639700e19e1461032e578063b13d5d9414610363578063be95687314610381578063bf4128fb146103b1578063cc51f9b9146103e657610142565b80633f9fd40a1161010a5780633f9fd40a146102415780635acf77b0146102715780635cffec981461028f57806361b8ce8c146102bf57806366c61ea6146102dd5780637bfdd249146102f957610142565b80631927312614610147578063297f7b391461017b5780632f04e064146101ab5780632f19d50b146101db5780633c7731e21461020b575b600080fd5b610161600480360381019061015c9190611f17565b6104e8565b604051610172959493929190611ffc565b60405180910390f35b61019560048036038101906101909190611f17565b6107c3565b6040516101a2919061207f565b60405180910390f35b6101c560048036038101906101c09190611f17565b61081c565b6040516101d2919061209a565b60405180910390f35b6101f560048036038101906101f091906121f1565b6108f0565b604051610202919061224d565b60405180910390f35b61022560048036038101906102209190612294565b610af9565b60405161023897969594939291906122c1565b60405180910390f35b61025b60048036038101906102569190612294565b610db7565b6040516102689190612345565b60405180910390f35b610279610df6565b604051610286919061224d565b60405180910390f35b6102a960048036038101906102a4919061238c565b610dfc565b6040516102b6919061207f565b60405180910390f35b6102c76111cd565b6040516102d4919061224d565b60405180910390f35b6102f760048036038101906102f29190612294565b6111d3565b005b610313600480360381019061030e9190612294565b611222565b6040516103259695949392919061243f565b60405180910390f35b61034860048036038101906103439190612294565b611343565b60405161035a9695949392919061243f565b60405180910390f35b61036b611464565b6040516103789190612565565b60405180910390f35b61039b60048036038101906103969190611f17565b6114f2565b6040516103a8919061207f565b60405180910390f35b6103cb60048036038101906103c69190611f17565b61154b565b6040516103dd96959493929190612587565b60405180910390f35b61040060048036038101906103fb9190611f17565b611859565b005b61041c60048036038101906104179190611f17565b6118b7565b604051610429919061224d565b60405180910390f35b61044c60048036038101906104479190612294565b611972565b005b61046860048036038101906104639190612294565b611a57565b604051610475919061224d565b60405180910390f35b610486611a7b565b604051610493919061224d565b60405180910390f35b6104b660048036038101906104b191906125fd565b611a88565b005b6104d260048036038101906104cd9190611f17565b611d4c565b6040516104df919061224d565b60405180910390f35b606080606060008060006040518060400160405280600581526020017f68656c6c6f000000000000000000000000000000000000000000000000000000815250905060608060008060005b6004805490508110156107a5578b73ffffffffffffffffffffffffffffffffffffffff166004828154811061056b5761056a61266c565b5b906000526020600020906006020160020160009054906101000a900473ffffffffffffffffffffffffffffffffffffffff1673ffffffffffffffffffffffffffffffffffffffff160361079257600481815481106105cc576105cb61266c565b5b906000526020600020906006020160030180546105e8906126ca565b80601f0160208091040260200160405190810160405280929190818152602001828054610614906126ca565b80156106615780601f1061063657610100808354040283529160200191610661565b820191906000526020600020905b81548152906001019060200180831161064457829003601f168201915b505050505095506004818154811061067c5761067b61266c565b5b9060005260206000209060060201600501549150600481815481106106a4576106a361266c565b5b906000526020600020906006020160020160009054906101000a900473ffffffffffffffffffffffffffffffffffffffff1692506106e18361081c565b9350600481815481106106f7576106f661266c565b5b906000526020600020906006020160040160009054906101000a900460ff1615610758576040518060400160405280600481526020017f74727565000000000000000000000000000000000000000000000000000000008152509450610791565b6040518060400160405280600581526020017f66616c736500000000000000000000000000000000000000000000000000000081525094505b5b808061079d9061272a565b915050610533565b50828585838599509950995099509950505050505091939590929450565b6000600260008373ffffffffffffffffffffffffffffffffffffffff1673ffffffffffffffffffffffffffffffffffffffff16815260200190815260200160002060040160009054906101000a900460ff169050919050565b6060600260008373ffffffffffffffffffffffffffffffffffffffff1673ffffffffffffffffffffffffffffffffffffffff168152602001908152602001600020600201805461086b906126ca565b80601f0160208091040260200160405190810160405280929190818152602001828054610897906126ca565b80156108e45780601f106108b9576101008083540402835291602001916108e4565b820191906000526020600020905b8154815290600101906020018083116108c757829003601f168201915b50505050509050919050565b6000808290506000600260008673ffffffffffffffffffffffffffffffffffffffff1673ffffffffffffffffffffffffffffffffffffffff1681526020019081526020016000206003018054610945906126ca565b80601f0160208091040260200160405190810160405280929190818152602001828054610971906126ca565b80156109be5780601f10610993576101008083540402835291602001916109be565b820191906000526020600020905b8154815290600101906020018083116109a157829003601f168201915b50505050509050600082519050815181146109df5760009350505050610af3565b60005b81811015610a8f578281815181106109fd576109fc61266c565b5b602001015160f81c60f81b7effffffffffffffffffffffffffffffffffffffffffffffffffffffffffffff1916848281518110610a3d57610a3c61266c565b5b602001015160f81c60f81b7effffffffffffffffffffffffffffffffffffffffffffffffffffffffffffff191614610a7c576000945050505050610af3565b8080610a879061272a565b9150506109e2565b506001600260008873ffffffffffffffffffffffffffffffffffffffff1673ffffffffffffffffffffffffffffffffffffffff16815260200190815260200160002060040160006101000a81548160ff021916908315150217905550600193505050505b92915050565b600060608060606000806000806040518060400160405280600581526020017f68656c6c6f000000000000000000000000000000000000000000000000000000815250905060608060008060008060048f81548110610b5b57610b5a61266c565b5b90600052602060002090600602016003018054610b77906126ca565b80601f0160208091040260200160405190810160405280929190818152602001828054610ba3906126ca565b8015610bf05780601f10610bc557610100808354040283529160200191610bf0565b820191906000526020600020905b815481529060010190602001808311610bd357829003601f168201915b5050505050965060048f81548110610c0b57610c0a61266c565b5b906000526020600020906006020160000154905060048f81548110610c3357610c3261266c565b5b906000526020600020906006020160050154915060048f81548110610c5b57610c5a61266c565b5b906000526020600020906006020160020160009054906101000a900473ffffffffffffffffffffffffffffffffffffffff16935060048f81548110610ca357610ca261266c565b5b906000526020600020906006020160010160009054906101000a900473ffffffffffffffffffffffffffffffffffffffff169250610ce08461081c565b945060048f81548110610cf657610cf561266c565b5b906000526020600020906006020160040160009054906101000a900460ff1615610d57576040518060400160405280600481526020017f74727565000000000000000000000000000000000000000000000000000000008152509550610d90565b6040518060400160405280600581526020017f66616c736500000000000000000000000000000000000000000000000000000081525095505b808588888588889d509d509d509d509d509d509d5050505050505050919395979092949650565b60038181548110610dc757600080fd5b906000526020600020016000915054906101000a900473ffffffffffffffffffffffffffffffffffffffff1681565b60005481565b60003373ffffffffffffffffffffffffffffffffffffffff16600260008873ffffffffffffffffffffffffffffffffffffffff1673ffffffffffffffffffffffffffffffffffffffff16815260200190815260200160002060000160009054906101000a900473ffffffffffffffffffffffffffffffffffffffff1673ffffffffffffffffffffffffffffffffffffffff1603610e9857600080fd5b85600260008873ffffffffffffffffffffffffffffffffffffffff1673ffffffffffffffffffffffffffffffffffffffff16815260200190815260200160002060000160006101000a81548173ffffffffffffffffffffffffffffffffffffffff021916908373ffffffffffffffffffffffffffffffffffffffff16021790555084600260008873ffffffffffffffffffffffffffffffffffffffff1673ffffffffffffffffffffffffffffffffffffffff16815260200190815260200160002060010160006101000a81548173ffffffffffffffffffffffffffffffffffffffff021916908373ffffffffffffffffffffffffffffffffffffffff16021790555083600260008873ffffffffffffffffffffffffffffffffffffffff1673ffffffffffffffffffffffffffffffffffffffff1681526020019081526020016000206002019081610fe9919061291e565b5082600260008873ffffffffffffffffffffffffffffffffffffffff1673ffffffffffffffffffffffffffffffffffffffff1681526020019081526020016000206003019081611039919061291e565b506000600260008873ffffffffffffffffffffffffffffffffffffffff1673ffffffffffffffffffffffffffffffffffffffff16815260200190815260200160002060040160006101000a81548160ff0219169083151502179055506103e8600260008873ffffffffffffffffffffffffffffffffffffffff1673ffffffffffffffffffffffffffffffffffffffff1681526020019081526020016000206005018190555081600260008873ffffffffffffffffffffffffffffffffffffffff1673ffffffffffffffffffffffffffffffffffffffff16815260200190815260200160002060040160016101000a81548160ff0219169083151502179055506001600081548092919061114b9061272a565b919050555060011515821515036111c0576003869080600181540180825580915050600190039060005260206000200160009091909190916101000a81548173ffffffffffffffffffffffffffffffffffffffff021916908373ffffffffffffffffffffffffffffffffffffffff1602179055505b6001905095945050505050565b60015481565b60006111de82611e07565b90506001600482815481106111f6576111f561266c565b5b906000526020600020906006020160040160006101000a81548160ff0219169083151502179055505050565b6005818154811061123257600080fd5b90600052602060002090600602016000915090508060000154908060010160009054906101000a900473ffffffffffffffffffffffffffffffffffffffff16908060020160009054906101000a900473ffffffffffffffffffffffffffffffffffffffff16908060030180546112a7906126ca565b80601f01602080910402602001604051908101604052809291908181526020018280546112d3906126ca565b80156113205780601f106112f557610100808354040283529160200191611320565b820191906000526020600020905b81548152906001019060200180831161130357829003601f168201915b5050505050908060040160009054906101000a900460ff16908060050154905086565b6004818154811061135357600080fd5b90600052602060002090600602016000915090508060000154908060010160009054906101000a900473ffffffffffffffffffffffffffffffffffffffff16908060020160009054906101000a900473ffffffffffffffffffffffffffffffffffffffff16908060030180546113c8906126ca565b80601f01602080910402602001604051908101604052809291908181526020018280546113f4906126ca565b80156114415780601f1061141657610100808354040283529160200191611441565b820191906000526020600020905b81548152906001019060200180831161142457829003601f168201915b5050505050908060040160009054906101000a900460ff16908060050154905086565b606060038054806020026020016040519081016040528092919081815260200182805480156114e857602002820191906000526020600020905b8160009054906101000a900473ffffffffffffffffffffffffffffffffffffffff1673ffffffffffffffffffffffffffffffffffffffff168152602001906001019080831161149e575b5050505050905090565b6000600260008373ffffffffffffffffffffffffffffffffffffffff1673ffffffffffffffffffffffffffffffffffffffff16815260200190815260200160002060040160019054906101000a900460ff169050919050565b6000606080606060008060006040518060400160405280600581526020017f68656c6c6f0000000000000000000000000000000000000000000000000000008152509050606080600080600080600090505b600480549050811015611837578d73ffffffffffffffffffffffffffffffffffffffff16600482815481106115d5576115d461266c565b5b906000526020600020906006020160010160009054906101000a900473ffffffffffffffffffffffffffffffffffffffff1673ffffffffffffffffffffffffffffffffffffffff160361182457600481815481106116365761163561266c565b5b90600052602060002090600602016003018054611652906126ca565b80601f016020809104026020016040519081016040528092919081815260200182805461167e906126ca565b80156116cb5780601f106116a0576101008083540402835291602001916116cb565b820191906000526020600020905b8154815290600101906020018083116116ae57829003601f168201915b50505050509650600481815481106116e6576116e561266c565b5b90600052602060002090600602016000015491506004818154811061170e5761170d61266c565b5b9060005260206000209060060201600501549250600481815481106117365761173561266c565b5b906000526020600020906006020160020160009054906101000a900473ffffffffffffffffffffffffffffffffffffffff1693506117738461081c565b9450600481815481106117895761178861266c565b5b906000526020600020906006020160040160009054906101000a900460ff16156117ea576040518060400160405280600481526020017f74727565000000000000000000000000000000000000000000000000000000008152509550611823565b6040518060400160405280600581526020017f66616c736500000000000000000000000000000000000000000000000000000081525095505b5b808061182f9061272a565b91505061159d565b508084878785879b509b509b509b509b509b5050505050505091939550919395565b6000600260008373ffffffffffffffffffffffffffffffffffffffff1673ffffffffffffffffffffffffffffffffffffffff16815260200190815260200160002060040160006101000a81548160ff02191690831515021790555050565b6000806000905060005b600480549050811015611968578373ffffffffffffffffffffffffffffffffffffffff16600482815481106118f9576118f861266c565b5b906000526020600020906006020160020160009054906101000a900473ffffffffffffffffffffffffffffffffffffffff1673ffffffffffffffffffffffffffffffffffffffff16036119555781806119519061272a565b9250505b80806119609061272a565b9150506118c1565b5080915050919050565b60011515600260003373ffffffffffffffffffffffffffffffffffffffff1673ffffffffffffffffffffffffffffffffffffffff16815260200190815260200160002060040160009054906101000a900460ff16151514611a08576040517f08c379a00000000000000000000000000000000000000000000000000000000081526004016119ff90612a62565b60405180910390fd5b6000611a1382611e07565b9050600060048281548110611a2b57611a2a61266c565b5b906000526020600020906006020160040160006101000a81548160ff0219169083151502179055505050565b60068181548110611a6757600080fd5b906000526020600020016000915090505481565b6000600380549050905090565b60011515600260003373ffffffffffffffffffffffffffffffffffffffff1673ffffffffffffffffffffffffffffffffffffffff16815260200190815260200160002060040160009054906101000a900460ff16151514611b1e576040517f08c379a0000000000000000000000000000000000000000000000000000000008152600401611b1590612a62565b60405180910390fd5b6000600260008573ffffffffffffffffffffffffffffffffffffffff1673ffffffffffffffffffffffffffffffffffffffff16815260200190815260200160002060010160009054906101000a900473ffffffffffffffffffffffffffffffffffffffff16905060008054905060046040518060c001604052808381526020018773ffffffffffffffffffffffffffffffffffffffff1681526020018473ffffffffffffffffffffffffffffffffffffffff1681526020018681526020016000151581526020018581525090806001815401808255809150506001900390600052602060002090600602016000909190919091506000820151816000015560208201518160010160006101000a81548173ffffffffffffffffffffffffffffffffffffffff021916908373ffffffffffffffffffffffffffffffffffffffff16021790555060408201518160020160006101000a81548173ffffffffffffffffffffffffffffffffffffffff021916908373ffffffffffffffffffffffffffffffffffffffff1602179055506060820151816003019081611cbf919061291e565b5060808201518160040160006101000a81548160ff02191690831515021790555060a0820151816005015550507f5c256b782f5168236998b6c623228d0203d5a2b3ba42e2b4658e2579c051bdd281868487600088604051611d269695949392919061243f565b60405180910390a1600080815480929190611d409061272a565b91905055505050505050565b6000806000905060005b600480549050811015611dfd578373ffffffffffffffffffffffffffffffffffffffff1660048281548110611d8e57611d8d61266c565b5b906000526020600020906006020160010160009054906101000a900473ffffffffffffffffffffffffffffffffffffffff1673ffffffffffffffffffffffffffffffffffffffff1603611dea578180611de69061272a565b9250505b8080611df59061272a565b915050611d56565b5080915050919050565b600080600090505b600480549050811015611e64578260048281548110611e3157611e3061266c565b5b90600052602060002090600602016000015403611e515780915050611ea0565b8080611e5c9061272a565b915050611e0f565b506040517f08c379a0000000000000000000000000000000000000000000000000000000008152600401611e9790612ace565b60405180910390fd5b919050565b6000604051905090565b600080fd5b600080fd5b600073ffffffffffffffffffffffffffffffffffffffff82169050919050565b6000611ee482611eb9565b9050919050565b611ef481611ed9565b8114611eff57600080fd5b50565b600081359050611f1181611eeb565b92915050565b600060208284031215611f2d57611f2c611eaf565b5b6000611f3b84828501611f02565b91505092915050565b600081519050919050565b600082825260208201905092915050565b60005b83811015611f7e578082015181840152602081019050611f63565b60008484015250505050565b6000601f19601f8301169050919050565b6000611fa682611f44565b611fb08185611f4f565b9350611fc0818560208601611f60565b611fc981611f8a565b840191505092915050565b6000819050919050565b611fe781611fd4565b82525050565b611ff681611ed9565b82525050565b600060a08201905081810360008301526120168188611f9b565b9050818103602083015261202a8187611f9b565b9050818103604083015261203e8186611f9b565b905061204d6060830185611fde565b61205a6080830184611fed565b9695505050505050565b60008115159050919050565b61207981612064565b82525050565b60006020820190506120946000830184612070565b92915050565b600060208201905081810360008301526120b48184611f9b565b905092915050565b600080fd5b600080fd5b7f4e487b7100000000000000000000000000000000000000000000000000000000600052604160045260246000fd5b6120fe82611f8a565b810181811067ffffffffffffffff8211171561211d5761211c6120c6565b5b80604052505050565b6000612130611ea5565b905061213c82826120f5565b919050565b600067ffffffffffffffff82111561215c5761215b6120c6565b5b61216582611f8a565b9050602081019050919050565b82818337600083830152505050565b600061219461218f84612141565b612126565b9050828152602081018484840111156121b0576121af6120c1565b5b6121bb848285612172565b509392505050565b600082601f8301126121d8576121d76120bc565b5b81356121e8848260208601612181565b91505092915050565b6000806040838503121561220857612207611eaf565b5b600061221685828601611f02565b925050602083013567ffffffffffffffff81111561223757612236611eb4565b5b612243858286016121c3565b9150509250929050565b60006020820190506122626000830184611fde565b92915050565b61227181611fd4565b811461227c57600080fd5b50565b60008135905061228e81612268565b92915050565b6000602082840312156122aa576122a9611eaf565b5b60006122b88482850161227f565b91505092915050565b600060e0820190506122d6600083018a611fde565b81810360208301526122e88189611f9b565b905081810360408301526122fc8188611f9b565b905081810360608301526123108187611f9b565b905061231f6080830186611fde565b61232c60a0830185611fed565b61233960c0830184611fed565b98975050505050505050565b600060208201905061235a6000830184611fed565b92915050565b61236981612064565b811461237457600080fd5b50565b60008135905061238681612360565b92915050565b600080600080600060a086880312156123a8576123a7611eaf565b5b60006123b688828901611f02565b95505060206123c788828901611f02565b945050604086013567ffffffffffffffff8111156123e8576123e7611eb4565b5b6123f4888289016121c3565b935050606086013567ffffffffffffffff81111561241557612414611eb4565b5b612421888289016121c3565b925050608061243288828901612377565b9150509295509295909350565b600060c0820190506124546000830189611fde565b6124616020830188611fed565b61246e6040830187611fed565b81810360608301526124808186611f9b565b905061248f6080830185612070565b61249c60a0830184611fde565b979650505050505050565b600081519050919050565b600082825260208201905092915050565b6000819050602082019050919050565b6124dc81611ed9565b82525050565b60006124ee83836124d3565b60208301905092915050565b6000602082019050919050565b6000612512826124a7565b61251c81856124b2565b9350612527836124c3565b8060005b8381101561255857815161253f88826124e2565b975061254a836124fa565b92505060018101905061252b565b5085935050505092915050565b6000602082019050818103600083015261257f8184612507565b905092915050565b600060c08201905061259c6000830189611fde565b81810360208301526125ae8188611f9b565b905081810360408301526125c28187611f9b565b905081810360608301526125d68186611f9b565b90506125e56080830185611fde565b6125f260a0830184611fed565b979650505050505050565b60008060006060848603121561261657612615611eaf565b5b600061262486828701611f02565b935050602084013567ffffffffffffffff81111561264557612644611eb4565b5b612651868287016121c3565b92505060406126628682870161227f565b9150509250925092565b7f4e487b7100000000000000000000000000000000000000000000000000000000600052603260045260246000fd5b7f4e487b7100000000000000000000000000000000000000000000000000000000600052602260045260246000fd5b600060028204905060018216806126e257607f821691505b6020821081036126f5576126f461269b565b5b50919050565b7f4e487b7100000000000000000000000000000000000000000000000000000000600052601160045260246000fd5b600061273582611fd4565b91507fffffffffffffffffffffffffffffffffffffffffffffffffffffffffffffffff8203612767576127666126fb565b5b600182019050919050565b60008190508160005260206000209050919050565b60006020601f8301049050919050565b600082821b905092915050565b6000600883026127d47fffffffffffffffffffffffffffffffffffffffffffffffffffffffffffffffff82612797565b6127de8683612797565b95508019841693508086168417925050509392505050565b6000819050919050565b600061281b61281661281184611fd4565b6127f6565b611fd4565b9050919050565b6000819050919050565b61283583612800565b61284961284182612822565b8484546127a4565b825550505050565b600090565b61285e612851565b61286981848461282c565b505050565b5b8181101561288d57612882600082612856565b60018101905061286f565b5050565b601f8211156128d2576128a381612772565b6128ac84612787565b810160208510156128bb578190505b6128cf6128c785612787565b83018261286e565b50505b505050565b600082821c905092915050565b60006128f5600019846008026128d7565b1980831691505092915050565b600061290e83836128e4565b9150826002028217905092915050565b61292782611f44565b67ffffffffffffffff8111156129405761293f6120c6565b5b61294a82546126ca565b612955828285612891565b600060209050601f8311600181146129885760008415612976578287015190505b6129808582612902565b8655506129e8565b601f19841661299686612772565b60005b828110156129be57848901518255600182019150602085019450602081019050612999565b868310156129db57848901516129d7601f8916826128e4565b8355505b6001600288020188555050505b505050505050565b7f416374696f6e206e6f74207065726d69747465642075736572206e656564207460008201527f6f206c6f67696e20666972737400000000000000000000000000000000000000602082015250565b6000612a4c602d83611f4f565b9150612a57826129f0565b604082019050919050565b60006020820190508181036000830152612a7b81612a3f565b9050919050565b7f636c61696d20646f6573206e6f74206578697374730000000000000000000000600082015250565b6000612ab8601583611f4f565b9150612ac382612a82565b602082019050919050565b60006020820190508181036000830152612ae781612aab565b905091905056fea26469706673582212202bef119581270d7e0f74b7d14dc099556f5285669888f1b11c7f85d7202a79dc64736f6c63430008130033",
  "immutableReferences": {},
  "source": "// SPDX-License-Identifier: MIT\npragma solidity ^0.8.0;\n\ncontract Auth {\n    uint public insuranceId=0;\n    uint public nextId=0;\n\n    struct Insurance{\n       uint id;\n       address insuredBy;\n       address doctor;\n       string reason;\n       bool isApproved;\n       uint amount; \n    }\n    event InsuranceCreated(\n        uint id,\n       address insuredBy,\n       address doctor,\n       string reason,\n       bool isApproved,\n       uint amount\n    );\n    \n    struct UserDetail {\n        address addr;\n        address draddr;\n        string name;\n        string password;\n        bool isUserLoggedIn;\n        bool isDoctor;\n        uint Amount;\n    }\n    mapping(address => UserDetail) user;\n    address[] public doctorAccounts;\n\n    Insurance[] public insurance;\n    Insurance[] public userinsurance;\n    uint[]  public userinsurances2;\n    modifier checkIsUserLogged2 {\n        require(user[msg.sender].isUserLoggedIn == true, \"Action not permitted user need to login first\");\n        _;\n    }\n    function totaldoctorInsurance(address _addr )external view returns(uint) {\n        uint count=0;  \n        for (uint i = 0; i < insurance.length; i++) {\n            if(insurance[i].doctor==_addr){ \n                count++;\n            }\n        }\n        return count;\n    }\n    function totaluserInsurance(address _addr )external view returns(uint) {\n        uint count=0;  \n        for (uint i = 0; i < insurance.length; i++) {\n            if(insurance[i].insuredBy==_addr){ \n                count++;\n            }\n        }\n        return count;\n    }\n    function getUserInsurance(address _addr )view external returns(uint,string memory,string memory,string memory,uint,address ) {\n        string memory reason1=\"hello\";\n        string memory isApproved1;\n        string memory drname1;\n        address temp;\n        uint amount1;\n        uint id1;\n        \n        for (uint i = 0; i < insurance.length; i++) {\n            if(insurance[i].insuredBy==_addr){ \n                reason1 = insurance[i].reason;\n                                id1 = insurance[i].id;\n\n                amount1 = insurance[i].amount;\n                temp = insurance[i].doctor;\n                drname1 = getDoctor(temp);\n                if(insurance[i].isApproved){\n                    isApproved1=\"true\";\n                }else{\n                    isApproved1=\"false\";\n                }\n            }\n        }\n        return (id1,drname1,reason1,isApproved1,amount1,temp);\n    }\n    function getUserInsuranceById(uint id)view external returns(uint,string memory,string memory,string memory,uint,address,address ) {\n        string memory reason1=\"hello\";\n        string memory isApproved1;\n        string memory drname1;\n        address temp;\n        address temp2;\n        uint amount1;\n        uint id1;\n        \n       \n          \n                reason1 = insurance[id].reason;\n                                id1 = insurance[id].id;\n\n                amount1 = insurance[id].amount;\n                temp = insurance[id].doctor;\n                temp2 = insurance[id].insuredBy;\n                drname1 = getDoctor(temp);\n                if(insurance[id].isApproved){\n                    isApproved1=\"true\";\n                }else{\n                    isApproved1=\"false\";\n                }\n            \n        \n        return (id1,drname1,reason1,isApproved1,amount1,temp,temp2);\n    }\n    function getDoctorInsuranceForApproval(address _addr )view external returns(string memory,string memory,string memory,uint,address ) {\n        string memory reason1=\"hello\";\n        string memory isApproved1;\n        string memory drname1;\n        address temp;\n        uint amount1;\n        for (uint i = 0; i < insurance.length; i++) {\n            if(insurance[i].doctor==_addr){ \n                reason1 = insurance[i].reason;\n                amount1 = insurance[i].amount;\n                temp = insurance[i].doctor;\n                drname1 = getDoctor(temp);\n                if(insurance[i].isApproved){\n                    isApproved1=\"true\";\n                }else{\n                    isApproved1=\"false\";\n                }\n            }\n        }\n        return (drname1,reason1,isApproved1,amount1,temp);\n    }\n    function isDr(address _address) public view returns(bool){\n        return (user[_address].isDoctor);\n    }\n    function getDoctors() view public returns (address[] memory) {\n        return doctorAccounts;\n    }\n    function getDoctor(address _address) view public returns (string memory) {\n        return (user[_address].name);\n    }\n    function countDoctors() view public returns (uint) {\n        return doctorAccounts.length;\n    }\n    function createInsurance(address _insuredBy,string memory _reason,uint _amount) public checkIsUserLogged2{\n        address drtemp= user[_insuredBy].draddr;\n        uint id2=insuranceId;\n        insurance.push(Insurance(id2, _insuredBy, drtemp, _reason,false, _amount));\n        emit InsuranceCreated(id2,_insuredBy, drtemp, _reason, false, _amount);\n        insuranceId++;\n    }\n    function approveInsurance(uint id) public {\n        uint id2=find(id);\n        insurance[id2].isApproved=true;\n     \n    }\n    function disapproveInsurance(uint id) public checkIsUserLogged2{\n        uint id3=find(id);\n        insurance[id3].isApproved=false;\n    }\n    function find(uint id) view internal returns(uint){\n        for (uint i = 0; i < insurance.length; i++) {\n            if(insurance[i].id==id){\n                return i;\n            }\n        }\n        revert('claim does not exists');\n    }\n\n    // user registration function\n    function register(\n        address _address,\n        address _draddress,\n\n        string memory _name,\n        string memory _password,\n        \n        bool _isDoctor\n    ) public returns (bool) {\n        require(user[_address].addr != msg.sender);\n        user[_address].addr = _address;\n        user[_address].draddr = _draddress;\n        user[_address].name = _name;\n        user[_address].password = _password;\n        user[_address].isUserLoggedIn = false;\n        user[_address].Amount = 1000;\n        user[_address].isDoctor = _isDoctor;\n        nextId++;\n        if(_isDoctor==true){\n        doctorAccounts.push(_address);\n        }\n\n        return true;\n    }\n\n    // user login function\n    function login(address _address, string memory _password) public returns (uint){\n        bytes memory b1 = bytes(_password);\n        bytes memory b2 = bytes(user[_address].password);\n        uint256 l1 = b1.length;\n        if (l1 != b2.length){\n            return 0;\n        } \n        for (uint256 i=0; i<l1; i++) {\n            if (b1[i] != b2[i]) {\n                return 0;\n            }\n            \n        }\n            user[_address].isUserLoggedIn = true;\n            return 1;            \n    }\n\n    // check the user logged In or not\n    function checkIsUserLogged(address _address) public view returns (bool) {\n        return (user[_address].isUserLoggedIn);\n    }\n    \n    // logout the user\n    function logout(address _address) public {\n        user[_address].isUserLoggedIn = false;\n    }\n}",
  "sourcePath": "/home/balls/Documents/Projects/eth-sm-contract/contracts/Auth.sol",
  "compiler": {
    "name": "solc",
    "version": "0.8.19+commit.7dd6d404.Emscripten.clang"
  },
  "schemaVersion": "3.4.13",
  "updatedAt": "2023-03-15T15:32:13.646Z",
  "networkType": "ethereum",
  "devdoc": {
    "kind": "dev",
    "methods": {},
    "version": 1
  },
  "userdoc": {
    "kind": "user",
    "methods": {},
    "version": 1
  }
}